{
  "contractName": "Wallet",
  "abi": [
    {
      "inputs": [
        {
          "internalType": "address[]",
          "name": "_approvers",
          "type": "address[]"
        },
        {
          "internalType": "uint256",
          "name": "_quorum",
          "type": "uint256"
        }
      ],
      "stateMutability": "nonpayable",
      "type": "constructor"
    },
    {
      "inputs": [
        {
          "internalType": "address",
          "name": "",
          "type": "address"
        },
        {
          "internalType": "uint256",
          "name": "",
          "type": "uint256"
        }
      ],
      "name": "approvals",
      "outputs": [
        {
          "internalType": "bool",
          "name": "",
          "type": "bool"
        }
      ],
      "stateMutability": "view",
      "type": "function",
      "constant": true
    },
    {
      "inputs": [
        {
          "internalType": "uint256",
          "name": "",
          "type": "uint256"
        }
      ],
      "name": "approvers",
      "outputs": [
        {
          "internalType": "address",
          "name": "",
          "type": "address"
        }
      ],
      "stateMutability": "view",
      "type": "function",
      "constant": true
    },
    {
      "inputs": [],
      "name": "quorum",
      "outputs": [
        {
          "internalType": "uint256",
          "name": "",
          "type": "uint256"
        }
      ],
      "stateMutability": "view",
      "type": "function",
      "constant": true
    },
    {
      "inputs": [
        {
          "internalType": "uint256",
          "name": "",
          "type": "uint256"
        }
      ],
      "name": "transfers",
      "outputs": [
        {
          "internalType": "uint256",
          "name": "id",
          "type": "uint256"
        },
        {
          "internalType": "uint256",
          "name": "amount",
          "type": "uint256"
        },
        {
          "internalType": "address payable",
          "name": "to",
          "type": "address"
        },
        {
          "internalType": "uint256",
          "name": "approvals",
          "type": "uint256"
        },
        {
          "internalType": "bool",
          "name": "sent",
          "type": "bool"
        }
      ],
      "stateMutability": "view",
      "type": "function",
      "constant": true
    },
    {
      "stateMutability": "payable",
      "type": "receive",
      "payable": true
    },
    {
      "inputs": [],
      "name": "getApproves",
      "outputs": [
        {
          "internalType": "address[]",
          "name": "",
          "type": "address[]"
        }
      ],
      "stateMutability": "view",
      "type": "function",
      "constant": true
    },
    {
      "inputs": [],
      "name": "getTransfers",
      "outputs": [
        {
          "components": [
            {
              "internalType": "uint256",
              "name": "id",
              "type": "uint256"
            },
            {
              "internalType": "uint256",
              "name": "amount",
              "type": "uint256"
            },
            {
              "internalType": "address payable",
              "name": "to",
              "type": "address"
            },
            {
              "internalType": "uint256",
              "name": "approvals",
              "type": "uint256"
            },
            {
              "internalType": "bool",
              "name": "sent",
              "type": "bool"
            }
          ],
          "internalType": "struct Wallet.Transfer[]",
          "name": "",
          "type": "tuple[]"
        }
      ],
      "stateMutability": "view",
      "type": "function",
      "constant": true
    },
    {
      "inputs": [
        {
          "internalType": "uint256",
          "name": "amount",
          "type": "uint256"
        },
        {
          "internalType": "address payable",
          "name": "to",
          "type": "address"
        }
      ],
      "name": "createTransfer",
      "outputs": [],
      "stateMutability": "nonpayable",
      "type": "function"
    },
    {
      "inputs": [
        {
          "internalType": "uint256",
          "name": "id",
          "type": "uint256"
        }
      ],
      "name": "approveTransfer",
      "outputs": [],
      "stateMutability": "nonpayable",
      "type": "function"
    }
  ],
  "bytecode": "0x60806040523480156200001157600080fd5b50604051620014bf380380620014bf833981810160405281019062000037919062000336565b81600090805190602001906200004f9291906200005f565b508060018190555050506200039c565b828054828255906000526020600020908101928215620000db579160200282015b82811115620000da5782518260006101000a81548173ffffffffffffffffffffffffffffffffffffffff021916908373ffffffffffffffffffffffffffffffffffffffff1602179055509160200191906001019062000080565b5b509050620000ea9190620000ee565b5090565b5b8082111562000109576000816000905550600101620000ef565b5090565b6000604051905090565b600080fd5b600080fd5b600080fd5b6000601f19601f8301169050919050565b7f4e487b7100000000000000000000000000000000000000000000000000000000600052604160045260246000fd5b620001718262000126565b810181811067ffffffffffffffff8211171562000193576200019262000137565b5b80604052505050565b6000620001a86200010d565b9050620001b6828262000166565b919050565b600067ffffffffffffffff821115620001d957620001d862000137565b5b602082029050602081019050919050565b600080fd5b600073ffffffffffffffffffffffffffffffffffffffff82169050919050565b60006200021c82620001ef565b9050919050565b6200022e816200020f565b81146200023a57600080fd5b50565b6000815190506200024e8162000223565b92915050565b60006200026b6200026584620001bb565b6200019c565b90508083825260208201905060208402830185811115620002915762000290620001ea565b5b835b81811015620002be5780620002a988826200023d565b84526020840193505060208101905062000293565b5050509392505050565b600082601f830112620002e057620002df62000121565b5b8151620002f284826020860162000254565b91505092915050565b6000819050919050565b6200031081620002fb565b81146200031c57600080fd5b50565b600081519050620003308162000305565b92915050565b6000806040838503121562000350576200034f62000117565b5b600083015167ffffffffffffffff8111156200037157620003706200011c565b5b6200037f85828601620002c8565b925050602062000392858286016200031f565b9150509250929050565b61111380620003ac6000396000f3fe60806040526004361061007f5760003560e01c8063cacca4a01161004e578063cacca4a01461014b578063d3650fb814610174578063d6e47221146101b1578063ffabc673146101dc57610086565b80631703a0181461008b5780632f65142c146100b65780634c12fa47146100e15780639377d7111461010a57610086565b3661008657005b600080fd5b34801561009757600080fd5b506100a0610219565b6040516100ad9190610a45565b60405180910390f35b3480156100c257600080fd5b506100cb61021f565b6040516100d89190610be2565b60405180910390f35b3480156100ed57600080fd5b5061010860048036038101906101039190610c61565b61030d565b005b34801561011657600080fd5b50610131600480360381019061012c9190610ca1565b6104ec565b604051610142959493929190610cec565b60405180910390f35b34801561015757600080fd5b50610172600480360381019061016d9190610ca1565b61055f565b005b34801561018057600080fd5b5061019b60048036038101906101969190610ca1565b610930565b6040516101a89190610d60565b60405180910390f35b3480156101bd57600080fd5b506101c661096f565b6040516101d39190610e39565b60405180910390f35b3480156101e857600080fd5b5061020360048036038101906101fe9190610e87565b6109fd565b6040516102109190610ec7565b60405180910390f35b60015481565b60606002805480602002602001604051908101604052809291908181526020016000905b8282101561030457838290600052602060002090600502016040518060a001604052908160008201548152602001600182015481526020016002820160009054906101000a900473ffffffffffffffffffffffffffffffffffffffff1673ffffffffffffffffffffffffffffffffffffffff1673ffffffffffffffffffffffffffffffffffffffff168152602001600382015481526020016004820160009054906101000a900460ff16151515158152505081526020019060010190610243565b50505050905090565b6000805b6000805490508110156103a7573373ffffffffffffffffffffffffffffffffffffffff166000828154811061034957610348610ee2565b5b9060005260206000200160009054906101000a900473ffffffffffffffffffffffffffffffffffffffff1673ffffffffffffffffffffffffffffffffffffffff160361039457600191505b808061039f90610f40565b915050610311565b5060011515811515146103ef576040517f08c379a00000000000000000000000000000000000000000000000000000000081526004016103e690610fe5565b60405180910390fd5b60026040518060a0016040528060028054905081526020018581526020018473ffffffffffffffffffffffffffffffffffffffff16815260200160008152602001600015158152509080600181540180825580915050600190039060005260206000209060050201600090919091909150600082015181600001556020820151816001015560408201518160020160006101000a81548173ffffffffffffffffffffffffffffffffffffffff021916908373ffffffffffffffffffffffffffffffffffffffff1602179055506060820151816003015560808201518160040160006101000a81548160ff0219169083151502179055505050505050565b600281815481106104fc57600080fd5b90600052602060002090600502016000915090508060000154908060010154908060020160009054906101000a900473ffffffffffffffffffffffffffffffffffffffff16908060030154908060040160009054906101000a900460ff16905085565b6000805b6000805490508110156105f9573373ffffffffffffffffffffffffffffffffffffffff166000828154811061059b5761059a610ee2565b5b9060005260206000200160009054906101000a900473ffffffffffffffffffffffffffffffffffffffff1673ffffffffffffffffffffffffffffffffffffffff16036105e657600191505b80806105f190610f40565b915050610563565b506001151581151514610641576040517f08c379a000000000000000000000000000000000000000000000000000000000815260040161063890610fe5565b60405180910390fd5b600015156002838154811061065957610658610ee2565b5b906000526020600020906005020160040160009054906101000a900460ff161515146106ba576040517f08c379a00000000000000000000000000000000000000000000000000000000081526004016106b190611051565b60405180910390fd5b60001515600360003373ffffffffffffffffffffffffffffffffffffffff1673ffffffffffffffffffffffffffffffffffffffff168152602001908152602001600020600084815260200190815260200160002060009054906101000a900460ff1615151461075e576040517f08c379a0000000000000000000000000000000000000000000000000000000008152600401610755906110bd565b60405180910390fd5b6001600360003373ffffffffffffffffffffffffffffffffffffffff1673ffffffffffffffffffffffffffffffffffffffff168152602001908152602001600020600084815260200190815260200160002060006101000a81548160ff021916908315150217905550600282815481106107db576107da610ee2565b5b906000526020600020906005020160030160008154809291906107fd90610f40565b91905055506001546002838154811061081957610818610ee2565b5b9060005260206000209060050201600301541061092c5760016002838154811061084657610845610ee2565b5b906000526020600020906005020160040160006101000a81548160ff02191690831515021790555060006002838154811061088457610883610ee2565b5b906000526020600020906005020160020160009054906101000a900473ffffffffffffffffffffffffffffffffffffffff1690506000600284815481106108ce576108cd610ee2565b5b90600052602060002090600502016001015490508173ffffffffffffffffffffffffffffffffffffffff166108fc829081150290604051600060405180830381858888f19350505050158015610928573d6000803e3d6000fd5b5050505b5050565b6000818154811061094057600080fd5b906000526020600020016000915054906101000a900473ffffffffffffffffffffffffffffffffffffffff1681565b606060008054806020026020016040519081016040528092919081815260200182805480156109f357602002820191906000526020600020905b8160009054906101000a900473ffffffffffffffffffffffffffffffffffffffff1673ffffffffffffffffffffffffffffffffffffffff16815260200190600101908083116109a9575b5050505050905090565b60036020528160005260406000206020528060005260406000206000915091509054906101000a900460ff1681565b6000819050919050565b610a3f81610a2c565b82525050565b6000602082019050610a5a6000830184610a36565b92915050565b600081519050919050565b600082825260208201905092915050565b6000819050602082019050919050565b610a9581610a2c565b82525050565b600073ffffffffffffffffffffffffffffffffffffffff82169050919050565b6000610ac682610a9b565b9050919050565b610ad681610abb565b82525050565b60008115159050919050565b610af181610adc565b82525050565b60a082016000820151610b0d6000850182610a8c565b506020820151610b206020850182610a8c565b506040820151610b336040850182610acd565b506060820151610b466060850182610a8c565b506080820151610b596080850182610ae8565b50505050565b6000610b6b8383610af7565b60a08301905092915050565b6000602082019050919050565b6000610b8f82610a60565b610b998185610a6b565b9350610ba483610a7c565b8060005b83811015610bd5578151610bbc8882610b5f565b9750610bc783610b77565b925050600181019050610ba8565b5085935050505092915050565b60006020820190508181036000830152610bfc8184610b84565b905092915050565b600080fd5b610c1281610a2c565b8114610c1d57600080fd5b50565b600081359050610c2f81610c09565b92915050565b610c3e81610abb565b8114610c4957600080fd5b50565b600081359050610c5b81610c35565b92915050565b60008060408385031215610c7857610c77610c04565b5b6000610c8685828601610c20565b9250506020610c9785828601610c4c565b9150509250929050565b600060208284031215610cb757610cb6610c04565b5b6000610cc584828501610c20565b91505092915050565b610cd781610abb565b82525050565b610ce681610adc565b82525050565b600060a082019050610d016000830188610a36565b610d0e6020830187610a36565b610d1b6040830186610cce565b610d286060830185610a36565b610d356080830184610cdd565b9695505050505050565b6000610d4a82610a9b565b9050919050565b610d5a81610d3f565b82525050565b6000602082019050610d756000830184610d51565b92915050565b600081519050919050565b600082825260208201905092915050565b6000819050602082019050919050565b610db081610d3f565b82525050565b6000610dc28383610da7565b60208301905092915050565b6000602082019050919050565b6000610de682610d7b565b610df08185610d86565b9350610dfb83610d97565b8060005b83811015610e2c578151610e138882610db6565b9750610e1e83610dce565b925050600181019050610dff565b5085935050505092915050565b60006020820190508181036000830152610e538184610ddb565b905092915050565b610e6481610d3f565b8114610e6f57600080fd5b50565b600081359050610e8181610e5b565b92915050565b60008060408385031215610e9e57610e9d610c04565b5b6000610eac85828601610e72565b9250506020610ebd85828601610c20565b9150509250929050565b6000602082019050610edc6000830184610cdd565b92915050565b7f4e487b7100000000000000000000000000000000000000000000000000000000600052603260045260246000fd5b7f4e487b7100000000000000000000000000000000000000000000000000000000600052601160045260246000fd5b6000610f4b82610a2c565b91507fffffffffffffffffffffffffffffffffffffffffffffffffffffffffffffffff8203610f7d57610f7c610f11565b5b600182019050919050565b600082825260208201905092915050565b7f6f6e6c7920617070726f76657220616c6c6f7765642100000000000000000000600082015250565b6000610fcf601683610f88565b9150610fda82610f99565b602082019050919050565b60006020820190508181036000830152610ffe81610fc2565b9050919050565b7f5472616e736665722068617320616c7265616479206265656e2073656e742100600082015250565b600061103b601f83610f88565b915061104682611005565b602082019050919050565b6000602082019050818103600083015261106a8161102e565b9050919050565b7f63616e6e6f7420617070726f7665207472616e73666572207477696365000000600082015250565b60006110a7601d83610f88565b91506110b282611071565b602082019050919050565b600060208201905081810360008301526110d68161109a565b905091905056fea264697066735822122041fba1a5aa465aa317b1f6c5128c9283a3e7b32d6f9b01a7862b404d6169b6a764736f6c634300080d0033",
  "immutableReferences": {},
  "source": "pragma solidity ^0.8.0;\r\npragma experimental ABIEncoderV2;\r\n\r\ncontract Wallet{\r\n    address[] public approvers;\r\n    uint public quorum;\r\n\r\n    struct Transfer {\r\n        uint id;\r\n        uint amount;\r\n        address payable to;\r\n        uint approvals;\r\n        bool sent;\r\n    }\r\n\r\n    Transfer[] public transfers;\r\n    mapping(address => mapping(uint => bool)) public approvals;\r\n    //in solidity 0.6.0: need public key word\r\n    constructor(address[] memory _approvers, uint _quorum) {\r\n        approvers = _approvers;\r\n        quorum = _quorum;\r\n    }\r\n\r\n    function getApproves() external view returns (address[] memory){\r\n        return approvers;\r\n    }\r\n\r\n    function getTransfers() external view returns (Transfer[] memory){\r\n        return transfers;\r\n    }\r\n\r\n    function createTransfer(uint amount, address payable to) external onlyApprover() {\r\n        transfers.push(Transfer(transfers.length, amount, to, 0, false));\r\n    }\r\n\r\n    function approveTransfer(uint id) external onlyApprover() {\r\n        require(transfers[id].sent == false, \"Transfer has already been sent!\");\r\n        require(approvals[msg.sender][id] ==  false, \"cannot approve transfer twice\");\r\n        approvals[msg.sender][id] = true;\r\n        transfers[id].approvals++;\r\n\r\n        if(transfers[id].approvals >= quorum){\r\n            transfers[id].sent = true;\r\n            address payable to  = transfers[id].to;\r\n            uint amount = transfers[id].amount;\r\n            to.transfer(amount);\r\n        }\r\n    }\r\n\r\n    receive() external payable{}\r\n\r\n    modifier onlyApprover() {\r\n        bool allowed  = false;\r\n        for(uint i = 0; i < approvers.length; i++) {\r\n            if(approvers[i] == msg.sender) {\r\n                allowed = true;\r\n            }\r\n        }\r\n        require(allowed == true, \"only approver allowed!\");\r\n        _;\r\n    }\r\n}",
  "sourcePath": "C:\\Users\\phamn\\OneDrive\\Coding\\truffle\\contracts\\Wallet.sol",
  "compiler": {
    "name": "solc",
    "version": "0.8.13+commit.abaa5c0e.Emscripten.clang"
  },
  "schemaVersion": "3.4.7",
  "updatedAt": "2022-04-16T03:04:50.911Z",
  "networkType": "ethereum",
  "devdoc": {
    "kind": "dev",
    "methods": {},
    "version": 1
  },
  "userdoc": {
    "kind": "user",
    "methods": {},
    "version": 1
  }
}